:100000000C9463000C948B000C948B000C940004F3
:100010000C9400040C9400040C948B000C948B0042
:100020000C948B000C948B000C948B000C948B0024
:100030000C948B000C948B000C948B000C948B0014
:100040000C94B6030C948B000C948B000C948B00D6
:100050000C948B000C948B000C948B000C948B00F4
:100060000C948B000C948B000000000024002700EF
:100070002A0000000000250028002B0000000000DE
:1000800023002600290004040404040404040202DA
:100090000202020203030303030301020408102007
:1000A0004080010204081020010204081020000012
:1000B0000008000201000003040700000000000027
:1000C00000005406BF0611241FBECFEFD8E0DEBFEC
:1000D000CDBF21E0A4E7B1E001C01D92AA3EB20766
:1000E000E1F711E0A0E0B1E0EEE2F2E102C005903C
:1000F0000D92A437B107D9F710E0C2E6D0E004C0F2
:100100002197FE010E941207C136D107C9F70E944C
:1001100078040C940A090C940000833081F028F4D0
:10012000813099F08230A9F008958730A9F08830A5
:10013000C9F08430B1F4809180008F7D03C080913C
:1001400080008F7780938000089584B58F7784BD79
:10015000089584B58F7DFBCF8091B0008F77809319
:10016000B00008958091B0008F7DF9CFCF93DF93D9
:10017000282F30E0F901E255FF4F8491F901E6564E
:10018000FF4FD491F901EA57FF4FC491CC23A1F05E
:1001900081110E948D00EC2FF0E0EE0FFF1FE4585C
:1001A000FF4FA591B491EC91ED2381E090E009F42B
:1001B00080E0DF91CF91089580E090E0FACF1F9327
:1001C000CF93DF93282F30E0F901E255FF4F849160
:1001D000F901E656FF4FD491F901EA57FF4FC49158
:1001E000CC23A9F0162F81110E948D00EC2FF0E096
:1001F000EE0FFF1FEE58FF4FA591B4918FB7F89403
:10020000EC91111108C0D095DE23DC938FBFDF91F4
:10021000CF911F910895DE2BF8CFCF93DF9390E01D
:10022000FC01E656FF4F24918A579F4FFC018491B1
:100230008823D1F090E0880F991FFC01E859FF4F07
:10024000A591B491FC01EE58FF4FC591D491611175
:100250000EC09FB7F8948C91E22FE0958E238C937B
:100260002881E223E8839FBFDF91CF9108958FB764
:10027000F894EC91E22BEC938FBFF6CF3FB7F89454
:100280008091C3019091C401A091C501B091C601B4
:1002900026B5A89B05C02F3F19F00196A11DB11DE1
:1002A0003FBFBA2FA92F982F8827BC01CD01620F1D
:1002B000711D811D911D42E0660F771F881F991FD8
:1002C0004A95D1F708958F929F92AF92BF92CF92A5
:1002D000DF92EF92FF924B015C010E943E016B01A5
:1002E0007C010E943E016C197D098E099F09683EC0
:1002F000734081059105A8F321E0821A9108A108B5
:10030000B10888EEC80E83E0D81EE11CF11C8114F0
:100310009104A104B10429F7FF90EF90DF90CF90F2
:10032000BF90AF909F908F900895AF92BF92CF9261
:10033000DF92EF92FF920F931F93CF93DF936C01A5
:100340007B018B01040F151FEB015E01AE18BF0886
:10035000C017D10759F06991D601ED91FC91019038
:10036000F081E02DC6010995892B79F7C501DF9150
:10037000CF911F910F91FF90EF90DF90CF90BF90A2
:10038000AF900895CF93DF93FC0144815581608144
:10039000718187EC91E00E949501EC0142E050E010
:1003A00068E171E087EC91E00E9495018C0F9D1F40
:1003B000DF91CF9108952091B6013091B7012817B0
:1003C000390771F49091B4018091B501981741F00B
:1003D000E091B401F0E0EC58FE4F808190E0089588
:1003E0008FEF9FEF08950895EF92FF920F931F9361
:1003F000CF93DF93DC015C96ED90FC905D97E11468
:10040000F10479F481E090E013969C938E93129717
:1004100090E080E0DF91CF911F910F91FF90EF90DE
:1004200008955196ED91FC91529750968C9150976A
:10043000982F90950FB75E962C915E97122F1270A1
:1004400021FD6095F8942081112319F1282B208338
:10045000E7012197F1F728E0462F50E0308160FF57
:100460001AC0382B3083E7012197F1F7BA0175954F
:100470006795215089F7112381F08081892380833A
:100480000FBF5C968D919C910197F1F781E090E010
:10049000C1CF2923DCCF3923E5CF9081892BEFCF42
:1004A0002091B6013091B7012817390761F4809186
:1004B000B5012091B40190E0805C9F4F821B9109AF
:1004C0008F739927089590E080E008952091B601F8
:1004D0003091B70128173907B9F49091B401809190
:1004E000B501981789F0E091B401F0E0EC58FE4FA7
:1004F00080812091B40130E02F5F3F4F2F7333276D
:100500002093B40190E008958FEF9FEF089590E05D
:1005100080E008950E94C20162E370E080E090E014
:100520000C9463010F931F93CF93DF93EC018881A9
:100530009981009759F02A813B812617370730F0BF
:1005400081E0DF91CF911F910F9108958B016F5F33
:100550007F4F0E943D08009759F0998388831B8341
:100560000A832C813D81232B59F7FC011082E8CFAF
:1005700080E0E7CFCF93DF93EC01888199810097EA
:1005800011F00E94B407198218821D821C821B82FE
:100590001A82DF91CF910895FC01808191810097AB
:1005A00011F00C94B4070895EF92FF920F931F93EC
:1005B000CF93DF93EC017B01198218821B821A8290
:1005C0001D821C82FB0101900020E9F731978F0109
:1005D000061B170BB8010E949202811109C0CE01BF
:1005E000DF91CF911F910F91FF90EF900C94BA0281
:1005F0001D830C83B70188819981DF91CF911F9171
:100600000F91FF90EF900C940309CF92DF92EF923D
:10061000FF920F931F93CF93DF93CDB7DEB72C9745
:100620000FB6F894DEBF0FBECDBF8C017B016BE12E
:1006300071E0CE0101960E94D402F801C080D18001
:10064000C114D10409F478C0048115810115110584
:10065000B9F08D819E81080F191FB801CE01019656
:100660000E949202882309F467C029813A818D8112
:100670009E81B601820F931F0E9403091E830D8382
:100680000D811E810F5F1F4FB801CE0101960E94A0
:100690009202811156C0CE0101960E94BA021886BC
:1006A0001F821A8619861C861B8609811A810115EC
:1006B000110569F0CD80DE80B601CE0107960E945B
:1006C000920281114BC0CE0107960E94BA02CE0160
:1006D00007960E948A02CE0107960E94CC02CE01A4
:1006E00001960E94CC0262E370E080E090E00E94FC
:1006F0006301C7010E94C20162E370E080E090E004
:100700000E9463016AE187EC91E00E94F40164E6D3
:1007100070E080E090E00E9463012C960FB6F894A0
:10072000DEBF0FBECDBFDF91CF911F910F91FF9024
:10073000EF90DF90CF900895CE0101960E94BA020B
:100740009FCF29813A818D819E8163E271E0820F82
:10075000931F0E9403091E830D83A1CFDC86CB86E5
:10076000B8018F8198850E940309B1CF1F920F9223
:100770000FB60F9211242F933F938F939F93AF93B4
:10078000BF938091BF019091C001A091C101B09130
:10079000C2013091BE0123E0230F2D3758F5019699
:1007A000A11DB11D2093BE018093BF019093C00194
:1007B000A093C101B093C2018091C3019091C40183
:1007C000A091C501B091C6010196A11DB11D8093F4
:1007D000C3019093C401A093C501B093C601BF911A
:1007E000AF919F918F913F912F910F900FBE0F90DE
:1007F0001F90189526E8230F0296A11DB11DD2CF98
:100800001F920F920FB60F9211242F933F934F9385
:100810005F936F937F938F939F93AF93BF93EF9368
:10082000FF93E091B601F091B701309749F0A685AA
:10083000B7858585968D91FF14C09C918923A1F47D
:10084000FF91EF91BF91AF919F918F917F916F91A8
:100850005F914F913F912F910F900FBE0F901F907E
:1008600018959C91892361F7A389B4899C91858906
:10087000809589238C93868997890197F1F7608DFC
:10088000718DA685B785558538E020E0CB010197AD
:10089000F1F7822F90E095958795282F4C9145236D
:1008A00009F02068315091F7868D81FD2095809167
:1008B000B50190E001968F7399273091B4013817F4
:1008C00099F0A091B501B0E0AC58BE4F2C93809345
:1008D000B501828D938D0197F1F7A389B4898C912D
:1008E0009589892B8C93ACCF868D8160868FF1CFD3
:1008F000CF93DF93CDB7DEB72C970FB6F894DEBF5A
:100900000FBECDBF789484B5826084BD84B581600C
:1009100084BD85B5826085BD85B5816085BD8091CA
:100920006E00816080936E00109281008091810042
:10093000826080938100809181008160809381003A
:10094000809180008160809380008091B1008460FC
:100950008093B1008091B00081608093B00080915D
:100960007A00846080937A0080917A00826080931C
:100970007A0080917A00816080937A0080917A0079
:10098000806880937A001092C1001092E201109268
:10099000E1011092E0011092DF011092DE0110924D
:1009A000DD018DE991E09093E4018093E301909162
:1009B000D301963108F047C02DEB30E03093DE01D3
:1009C0002093DD012BE931E03093E0012093DF013A
:1009D0002CE231E03093E2012093E10120916800A4
:1009E00084E0983048F031E09E3008F430E081E057
:1009F00001C0880F3A95EAF7822B809368002DE6B4
:100A000030E0983050F02BE630E09E3030F02CE6AD
:100A100030E0963110F030E020E03093DB0120939D
:100A2000DA01292F30E0983008F015C181E001C0CB
:100A3000880F9A95EAF78093DC018091E301909109
:100A4000E4010197F1F78091E1019091E201892B96
:100A500049F1E091B601F091B70181E0E73CF80778
:100A600009F1309739F0A389B4899C9185898095E3
:100A700089238C938091E5018E7F8093E50110920C
:100A8000B5011092B40187EC91E09093B701809387
:100A9000B601E091DA01F091DB0180819091DC01F7
:100AA000892B808365E271E0CE0101960E94D40219
:100AB000CE0101960E948A02CE0101960E94CC02CC
:100AC0006FE271E0CE0101960E94D402CE01019640
:100AD0000E948A02CE0101960E94CC0261E082E06F
:100AE0000E940D0160E083E00E940D0161E084E05E
:100AF0000E940D0161E085E00E940D0161E087E048
:100B00000E940D0160E086E00E940D0161E471E049
:100B1000CE0101960E94D40264E571E0CE010796F1
:100B20000E94D402BE016F5F7F4FCE0107960E94E4
:100B30000503CE0107960E94CC02CE0101960E94C9
:100B4000CC0200E010E02FB7F8948091BF019091A3
:100B5000C001A091C101B091C2012FBF4091BA0163
:100B60005091BB016091BC017091BD01841B950B3C
:100B7000A60BB70B84369105A105B10508F459C041
:100B80002FB7F8948091BF019091C001A091C1014D
:100B9000B091C2012FBF8093BA019093BB01A09383
:100BA000BC01B093BD0183E00E94B6006C0186E0F9
:100BB0000E94B6007C01CA94CD2809F059C081E09A
:100BC000E816F10409F054C08091B8019091B90180
:100BD000892B79F561E082E00E94DF0061E085E029
:100BE0000E94DF0060E087E00E94DF0061E084E0B7
:100BF0000E94DF0060E671E0CE0107960E94D402F9
:100C000064E571E0CE0101960E94D402BE01695FE5
:100C10007F4FCE0101960E940503CE0101960E94EE
:100C2000CC02CE0107960E94CC02F092B901E0926C
:100C3000B80187EC91E00E945002181619066CF575
:100C400087EC91E00E945002892B39F187EC91E00A
:100C50000E946602F5CF9E3040F42850310981E0B1
:100C600001C0880F2A95EAF7E6CE2E503109F7CF5A
:100C700060E082E00E94DF0060E085E00E94DF002B
:100C800061E087E00E94DF0060E084E00E94DF0016
:100C90001092B9011092B801CCCF0115110509F4D9
:100CA00052CF0E9400004FCF1092CA011092C9018A
:100CB00088EE93E0A0E0B0E08093CB019093CC016C
:100CC000A093CD01B093CE018AE091E09093C8014A
:100CD0008093C7011092DE011092DD011092E001B5
:100CE0001092DF011092E2011092E1011092E401F2
:100CF0001092E3016091E5016E7F6D7F6093E501E5
:100D00006695617081E068270E94DF0061E081E004
:100D10000E940D01EBE9F0E0E491E093D701E7E8F0
:100D2000F0E0E491F0E0EE0FFF1FEE58FF4F8591E9
:100D300094919093D9018093D80160E080E00E9463
:100D40000D018091E50181FD04C061E080E00E9419
:100D5000DF001092D301EAE9F0E0E491E093D401DE
:100D6000E6E8F0E0E491F0E0EE0FFF1FE458FF4FFB
:100D7000859194919093D6018093D50108958AE04E
:100D800091E09093C8018093C7018091B601909142
:100D9000B701875C914071F4E091DA01F091DB01D9
:100DA00090818091DC018095892380831092B70126
:100DB0001092B60108952F923F924F925F926F92D8
:100DC0007F928F929F92AF92BF92CF92DF92EF92DB
:100DD000FF920F931F93CF93DF93CDB7DEB7CA1B5C
:100DE000DB0B0FB6F894DEBF0FBECDBF09942A8887
:100DF000398848885F846E847D848C849B84AA842F
:100E0000B984C884DF80EE80FD800C811B81AA81BB
:100E1000B981CE0FD11D0FB6F894DEBF0FBECDBF86
:100E2000ED010895EE0FFF1F0590F491E02D099458
:100E30000F931F93CF93DF938230910510F482E0DC
:100E400090E0E091E801F091E90130E020E0B0E0CD
:100E5000A0E0309799F42115310509F44AC0281B08
:100E6000390B24303105D8F58A819B8161157105D4
:100E700089F1FB0193838283FE0111C0408151817E
:100E80000281138148175907E0F04817590799F470
:100E9000109761F012960C93129713961C9332964A
:100EA000CF01DF91CF911F910F9108950093E80139
:100EB0001093E901F4CF2115310551F04217530782
:100EC00038F0A901DB019A01BD01DF01F801C1CFB2
:100ED000EF01F9CF9093E9018093E801CDCFFE01B6
:100EE000E20FF31F819391932250310939832883B4
:100EF000D7CF2091E6013091E701232B41F42091D7
:100F00000201309103013093E7012093E601209123
:100F10000001309101012115310541F42DB73EB793
:100F20004091040150910501241B350BE091E6012D
:100F3000F091E701E217F307A0F42E1B3F0B2817EF
:100F4000390778F0AC014E5F5F4F2417350748F042
:100F50004E0F5F1F5093E7014093E60181939193F9
:100F60009FCFF0E0E0E09CCFCF93DF930097E9F0D4
:100F7000FC01329713821282A091E801B091E9013D
:100F8000ED0130E020E01097A1F420813181820F43
:100F9000931F2091E6013091E7012817390709F0E6
:100FA00061C0F093E701E093E601DF91CF910895EE
:100FB000EA01CE17DF07E8F54A815B819E01411502
:100FC0005105B1F7E901FB83EA8349915991C40FB7
:100FD000D51FEC17FD0761F4808191810296840F83
:100FE000951FE90199838883828193819B838A83FA
:100FF000F0E0E0E012968D919C9113970097B9F57F
:101000002D913C911197CD010296820F931F209153
:10101000E6013091E7012817390739F6309751F585
:101020001092E9011092E801B093E701A093E60164
:10103000BCCFD383C28340815181840F951FC817D1
:10104000D90761F44E5F5F4F88819981480F591F1E
:10105000518340838A819B8193838283211531054B
:1010600009F0B0CFF093E901E093E8019ECFFD01D4
:10107000DC01C0CF13821282D7CFB0E0A0E0E3E45E
:10108000F8E00C94DD068C01009751F4CB010E942E
:1010900018078C01C801CDB7DEB7E0E10C94F90662
:1010A000FC01E60FF71F9C0122503109E217F307FC
:1010B00008F49DC0D901CD91DC911197C617D707CF
:1010C00098F0C530D10530F3CE0104978617970705
:1010D00008F3C61BD70B2297C193D1936D937C93D2
:1010E000CF010E94B407D6CF5B01AC1ABD0A4C01F8
:1010F0008C0E9D1EA091E801B091E901512C412C6C
:10110000F12CE12C109731F58091E6019091E701E7
:101110008815990509F05CC04616570608F058C0B6
:101120008091000190910101009741F48DB79EB725
:101130004091040150910501841B950BE817F907B4
:1011400008F055C0F093E701E093E601F9017183DF
:101150006083A0CF8D919C91119712966C901297FD
:1011600013967C901397A815B90559F56C0142E0C8
:10117000C40ED11CCA14DB0420F1AC014A195B096E
:10118000DA011296159780F0628273825183408350
:10119000D9016D937C93E114F10471F0D70113969A
:1011A000FC93EE93129776CF22968C0F9D1FF90138
:1011B00091838083F301EFCFF093E901E093E8019D
:1011C00069CF4816590608F42C017D01D3019ACF46
:1011D000CB010E9418077C01009749F0AE01B801CD
:1011E0000E94FA08C8010E94B407870153CF10E09B
:1011F00000E050CFFB01DC0102C001900D92415094
:101200005040D8F70895FB01DC0101900D920020B9
:10121000E1F7089510E0C2E6D0E004C0FE010E94AC
:0E12200012072196C336D107C9F7F894FFCF05
:10122E000000EA01800000000000F4019501870231
:10123E00F30150026602DB010D0A0041542B434DAF
:10124E0047533D220041542B434D47463D3100410B
:10125E00542B434E4D493D322C322C302C302C30F9
:10126E000053797374656D20496E697469616C6998
:10127E007A6564002B3132333435363738393000E5
:10128E00456C657068616E74204465746563746541
:04129E0064210000C7
:00000001FF
