:100000000C9463000C948B000C948B000C943005C2
:100010000C9430050C9430050C948B000C948B00E0
:100020000C948B000C948B000C948B000C948B0024
:100030000C948B000C948B000C948B000C948B0014
:100040000C948E040C948B000C94FE040C94D80435
:100050000C948B000C948B000C948B000C948B00F4
:100060000C948B000C948B000000000024002700EF
:100070002A0000000008000201000003040700003D
:1000800000000000000000000000230026002900FE
:1000900000000000250028002B00040404040404D0
:1000A0000404020202020202030303030303010227
:1000B00004081020408001020408102001020408F6
:1000C0001020A8057A0811241FBECFEFD8E0DEBFAC
:1000D000CDBF22E0A4E9B1E001C01D92A33AB2076E
:1000E000E1F711E0A0E0B1E0E4EAF5E102C005903B
:1000F0000D92A439B107D9F710E0C2E6D0E004C0F0
:100100002197FE010E94CD08C136D107C9F70E9490
:1001100051060C94C50A0C940000833081F028F439
:10012000813099F08230A9F008958730A9F08830A5
:10013000C9F08430B1F4809180008F7D03C080913C
:1001400080008F7780938000089584B58F7784BD79
:10015000089584B58F7DFBCF8091B0008F77809319
:10016000B00008958091B0008F7DF9CFCF93DF93D9
:10017000282F30E0F901EE58FF4F8491F901E25544
:10018000FF4FD491F901E656FF4FC491CC23A1F063
:1001900081110E948D00EC2FF0E0EE0FFF1FEA5757
:1001A000FF4FA591B491EC91ED2381E090E009F42B
:1001B00080E0DF91CF91089580E090E0FACF1F9327
:1001C000CF93DF93282F30E0F901EE58FF4F849151
:1001D000F901E255FF4FD491F901E656FF4FC49162
:1001E000CC23A9F0162F81110E948D00EC2FF0E096
:1001F000EE0FFF1FE057FF4FA591B4918FB7F89412
:10020000EC91111108C0D095DE23DC938FBFDF91F4
:10021000CF911F910895DE2BF8CFCF93DF9390E01D
:10022000FC01E255FF4F249186569F4FFC018491BB
:100230008823D1F090E0880F991FFC01E859FF4F07
:10024000A591B491FC01E057FF4FC591D491611184
:100250000EC09FB7F8948C91E22FE0958E238C937B
:100260002881E223E8839FBFDF91CF9108958FB764
:10027000F894EC91E22BEC938FBFF6CF3FB7F89454
:100280008091DF019091E001A091E101B091E20144
:1002900026B5A89B05C02F3F19F00196A11DB11DE1
:1002A0003FBFBA2FA92F982F8827BC01CD01620F1D
:1002B000711D811D911D42E0660F771F881F991FD8
:1002C0004A95D1F708958F929F92AF92BF92CF92A5
:1002D000DF92EF92FF926B017C010E943E014B0185
:1002E0005C01C114D104E104F104B9F00E943E01A3
:1002F000681979098A099B09683E7340810591054F
:1003000080F321E0C21AD108E108F10888EE880ED6
:1003100083E0981EA11CB11CE4CFFF90EF90DF900A
:10032000CF90BF90AF909F908F900895AF92BF9263
:10033000CF92DF92EF92FF920F931F93CF93DF93B1
:100340006C017B018B01040F151FEB015E01AE18E0
:10035000BF08C017D10759F06991D601ED91FC9102
:100360000190F081E02DC6010995892B79F7C5012F
:10037000DF91CF911F910F91FF90EF90DF90CF9081
:10038000BF90AF900895FC01538D448D252F30E030
:10039000842F90E0821B930B541710F0CF96089592
:1003A00001970895FC01918D828D981761F0A28DBF
:1003B000AE0FBF2FB11D5D968C91928D9F5F9F7385
:1003C000928F90E008958FEF9FEF0895FC01918D3B
:1003D000828D981731F0828DE80FF11D858D90E0A8
:1003E00008958FEF9FEF0895FC01918D228D892F45
:1003F00090E0805C9F4F821B91098F73992708952D
:1004000083EE91E00E94F40121E0892B09F420E0C1
:10041000822F089580E090E0892B29F00E9400024D
:1004200081110C9400000895FC01A48DA80FB92F30
:10043000B11DA35ABF4F2C91848D90E001968F730C
:100440009927848FA689B7892C93A089B1898C912B
:10045000837080648C93938D848D981306C002887A
:10046000F389E02D80818F7D80830895EF92FF9244
:100470000F931F93CF93DF93EC0181E0888F9B8DC7
:100480008C8D98131AC0E889F989808185FF15C081
:100490009FB7F894EE89FF896083E889F9898081A4
:1004A0008370806480839FBF81E090E0DF91CF9173
:1004B0001F910F91FF90EF900895F62E0B8D10E095
:1004C0000F5F1F4F0F731127E02E8C8D8E110CC004
:1004D0000FB607FCFACFE889F989808185FFF5CF4F
:1004E000CE010E941402F1CFEB8DEC0FFD2FF11D18
:1004F000E35AFF4FF0829FB7F8940B8FEA89FB898C
:1005000080818062CFCFCF93DF93EC01888D8823E9
:10051000B9F0AA89BB89E889F9898C9185FD03C066
:10052000808186FD0DC00FB607FCF7CF8C9185FF4B
:10053000F2CF808185FFEDCFCE010E941402E9CF7A
:10054000DF91CF9108952091D6013091D7012817DE
:10055000390771F49091D4018091D501981741F039
:10056000E091D401F0E0EC56FE4F808190E00895D8
:100570008FEF9FEF08950895EF92FF920F931F93CF
:10058000CF93DF93DC015C96ED90FC905D97E114D6
:10059000F10479F481E090E013969C938E93129786
:1005A00090E080E0DF91CF911F910F91FF90EF904D
:1005B00008955196ED91FC91529750968C915097D9
:1005C000982F90950FB75E962C915E97122F127010
:1005D00021FD6095F8942081112319F1282B2083A7
:1005E000E7012197F1F728E0462F50E0308160FFC6
:1005F0001AC0382B3083E7012197F1F7BA017595BE
:100600006795215089F7112381F0808189238083A8
:100610000FBF5C968D919C910197F1F781E090E07E
:10062000C1CF2923DCCF3923E5CF9081892BEFCFB0
:100630002091D6013091D7012817390761F48091B4
:10064000D5012091D40190E0805C9F4F821B9109DD
:100650008F739927089590E080E008952091D60146
:100660003091D70128173907B9F49091D4018091BE
:10067000D501981789F0E091D401F0E0EC56FE4FD7
:1006800080812091D40130E02F5F3F4F2F733327BB
:100690002093D40190E008958FEF9FEF089590E0AC
:1006A00080E00895CF93DF93EC01888199810097D2
:1006B00011F00E946F09198218821D821C821B8210
:1006C0001A82DF91CF910895FC018081918100977A
:1006D00011F00C946F0908950F931F93CF93DF933C
:1006E000EC0188819981009759F02A813B81261776
:1006F000370730F081E0DF91CF911F910F9108957E
:100700008B016F5F7F4F0E94F809009759F0998322
:1007100088831B830A832C813D81232B59F7FC019D
:100720001082E8CF80E0E7CFEF92FF920F931F9304
:10073000CF93DF93EC017B01198218821B821A820E
:100740001D821C82FB0101900020E9F731978F0187
:10075000061B170BB8010E946C03811109C0CE0162
:10076000DF91CF911F910F91FF90EF900C94520366
:100770001D830C83B70188819981DF91CF911F91EF
:100780000F91FF90EF900C94BE0AFB0101900020A6
:10079000E9F73197AF01461B570BDC01ED91FC9156
:1007A0000280F381E02D0994CF93DF93BC0180E8B0
:1007B00092E00E94C503EC016AE271E080E892E0F9
:1007C0000E94C5038C0F9D1FDF91CF9108950F9359
:1007D0001F93CF93DF93EC01FB014481558160812E
:1007E0007181E881F9810280F381E02D09958C0106
:1007F0006AE271E0CE010E94C503800F911FDF9174
:10080000CF911F910F910895EF92FF920F931F9335
:10081000CF93DF9300D000D000D0CDB7DEB77C01FE
:100820008B018DE291E00E94D40361E070E080E0F2
:1008300090E00E94630167E371E080E892E00E942B
:10084000C503F701448155816081718180E892E0A0
:100850000E9496018FE391E00E94D40361E070E072
:1008600080E090E00E946301B80180E892E00E947D
:10087000E70361E070E080E090E00E9463016AE1DC
:1008800080E892E00E94BC0263E070E080E090E0CB
:100890000E94630161E471E0CE0101960E9494031D
:1008A000F801E080F180E114F10499F104811581EF
:1008B00001151105B1F08D819E81080F191FB80136
:1008C000CE0101960E946C03882319F129813A8197
:1008D0008D819E81B701820F931F0E94BE0A1E83E5
:1008E0000D83BE016F5F7F4F83EE91E00E94E703AF
:1008F000CE0101960E94640326960FB6F894DEBFDF
:100900000FBECDBFDF91CF911F910F91FF90EF9060
:100910000895CE0101960E945203E3CF1F920F92D9
:100920000FB60F9211242F933F938F939F93AF9302
:10093000BF938091DB019091DC01A091DD01B0912A
:10094000DE013091DA0123E0230F2D3758F50196AF
:10095000A11DB11D2093DA018093DB019093DC018E
:10096000A093DD01B093DE018091DF019091E00161
:10097000A091E101B091E2010196A11DB11D80930A
:10098000DF019093E001A093E101B093E201BF91F8
:10099000AF919F918F913F912F910F900FBE0F902C
:1009A0001F90189526E8230F0296A11DB11DD2CFE6
:1009B0001F920F920FB60F9211242F933F934F93D4
:1009C0005F936F937F938F939F93AF93BF93EF93B7
:1009D000FF9383EE91E00E941402FF91EF91BF918B
:1009E000AF919F918F917F916F915F914F913F91C7
:1009F0002F910F900FBE0F901F9018951F920F927E
:100A00000FB60F9211242F938F939F93EF93FF9321
:100A1000E091F301F091F4018081E091F901F0910E
:100A2000FA0182FD1BC090818091FC018F5F8F7362
:100A30002091FD01821741F0E091FC01F0E0ED51C1
:100A4000FE4F958F8093FC01FF91EF919F918F91C5
:100A50002F910F900FBE0F901F9018958081F4CFAB
:100A60001F920F920FB60F9211242F933F934F9323
:100A70005F936F937F938F939F93AF93BF93EF9306
:100A8000FF93E091D601F091D701309749F0A68508
:100A9000B7858585968D91FF14C09C918923A1F41B
:100AA000FF91EF91BF91AF919F918F917F916F9146
:100AB0005F914F913F912F910F900FBE0F901F901C
:100AC00018959C91892361F7A389B4899C918589A4
:100AD000809589238C93868997890197F1F7608D9A
:100AE000718DA685B785558538E020E0CB0101974B
:100AF000F1F7822F90E095958795282F4C9145230B
:100B000009F02068315091F7868D81FD2095809104
:100B1000D50190E001968F7399273091D401381751
:100B200099F0A091D501B0E0AC56BE4F2C938093C4
:100B3000D501828D938D0197F1F7A389B4898C91AA
:100B40009589892B8C93ACCF868D8160868FF1CF70
:100B50001092E6011092E50188EE93E0A0E0B0E08B
:100B60008093E7019093E801A093E901B093EA0133
:100B70002AE031E03093E4012093E30125EC30E0FA
:100B80003093F0012093EF0124EC30E03093F20138
:100B90002093F10120EC30E03093F4012093F30135
:100BA00021EC30E03093F6012093F50122EC30E0A7
:100BB0003093F8012093F70126EC30E03093FA01EE
:100BC0002093F9011092FC011092FD011092FE0198
:100BD0001092FF011092830210928202809384028D
:100BE00090938502A0938602B09387028CE191E0F6
:100BF0009093810280938002109297021092960245
:100C0000109299021092980210929B0210929A02EE
:100C100010929D0210929C0260919E026E7F6D7FE9
:100C200060939E026695617081E068270E94DF00F4
:100C300061E081E00E940D01EFEAF0E0E491E093D1
:100C40009002EBE9F0E0E491F0E0EE0FFF1FE057D7
:100C5000FF4F85919491909392028093910260E06E
:100C600080E00E940D0180919E0281FD04C061E040
:100C700080E00E94DF0010928C02EEEAF0E0E49146
:100C8000E0938D02EAE9F0E0E491F0E0EE0FFF1F5F
:100C9000EA57FF4F8591949190938F0280938E0233
:100CA0000895CF93DF93CDB7DEB762970FB6F89470
:100CB000DEBF0FBECDBF789484B5826084BD84B59D
:100CC000816084BD85B5826085BD85B5816085BD47
:100CD00080916E00816080936E00109281008091FF
:100CE0008100826080938100809181008160809387
:100CF0008100809180008160809380008091B100AC
:100D000084608093B1008091B00081608093B000D6
:100D100080917A00846080937A0080917A0082606A
:100D200080937A0080917A00816080937A0080912C
:100D30007A00806880937A001092C1001092D901E5
:100D40001092D80110929B0210929A02109299026E
:100D50001092980210929702109296028DE991E0FB
:100D600090939D0280939C0290918C02963108F0A2
:100D700047C02DEB30E030939702209396022BE989
:100D800031E030939902209398022CE231E03093C5
:100D90009B0220939A022091680084E0983048F0EA
:100DA00031E09E3008F430E081E001C0880F3A95D0
:100DB000EAF7822B809368002DE630E0983050F0FF
:100DC0002BE630E09E3030F02CE630E0963110F02B
:100DD00030E020E03093940220939302292F30E0FA
:100DE000983008F02CC181E001C0880F9A95EAF78D
:100DF0008093950280919C0290919D020197F1F75A
:100E000080919A0290919B02892B49F1E091D60141
:100E1000F091D70182E0E038F80709F1309739F016
:100E2000A389B4899C918589809589238C9380912D
:100E30009E028E7F80939E021092D5011092D40163
:100E400080E892E09093D7018093D601E0919302DD
:100E5000F0919402808190919502892B8083E0919A
:100E6000F301F091F40182E08083E091EF01F091D1
:100E7000F0011082E091F101F091F2018FEC80839A
:100E80001092FB01E091F701F091F80186E0808378
:100E9000E091F501F091F601808180618083E0911D
:100EA000F501F091F601808188608083E091F50181
:100EB000F091F601808180688083E091F501F091E6
:100EC000F60180818F7D80838DE291E00E94D403C2
:100ED00061E070E080E090E00E94630180E591E0D5
:100EE0000E94D40361E070E080E090E00E94630122
:100EF00061E082E00E940D0160E083E00E940D014C
:100F000061E084E00E940D0161E085E00E940D0136
:100F100061E087E00E940D0160E086E00E940D0123
:100F200062E671E0CE0101960E94940365E771E0EC
:100F3000CE0107960E949403BE016F5F7F4FCE01E2
:100F400007960E940404CE0107960E946403CE0116
:100F500001960E94640380E0C82E80E0D82EAA2467
:100F6000A394B12C65E771E0CE010D960E94940325
:100F700083E00E94B600019709F0ABC086E00E94B2
:100F8000B600019709F090C08091D8019091D901E5
:100F9000892B09F073C061E082E00E94DF0061E00C
:100FA00085E00E94DF0060E087E00E94DF0061E0F2
:100FB00084E00E94DF0061E871E0CE0101960E94AA
:100FC000940318861F821A8619861C861B860D8537
:100FD0001E850115110569F0E988FA88B701CE016F
:100FE00007960E946C03811137C0CE0107960E94BC
:100FF0005203BE016F5F7F4FCE0107960E9404042B
:10100000CE0107960E946403CE0101960E946403FC
:1010100080E892E00E941803181619065CF580E833
:1010200092E00E941803892BF9F080E892E00E9478
:101030002E03682F83EE91E00E943602F0CF9E309F
:1010400040F42850310981E001C0880F2A95EAF761
:10105000CFCE2E503109F7CFFC86EB86B8018F81B9
:1010600098850E94BE0AC5CF6AE271E083EE91E0E6
:101070000E94C503B092D901A092D80161E070E04E
:1010800080E090E00E946301CE010D960E9464030F
:10109000C114D10409F466CF0E940002882309F428
:1010A00061CF0E9400005ECF60E082E00E94DF001E
:1010B00061E087E00E94DF0060E084E00E94DF00E2
:1010C00060E085E00E94DF001092D9011092D80103
:1010D000DBCF60E082E00E94DF0061E087E00E94F9
:1010E000DF0060E084E00E94DF0060E085E00E94B5
:1010F000DF00CACF8CE191E090938102809380025F
:101100008091D6019091D7018058924071F4E0917E
:101110009302F091940290818091950280958923A9
:1011200080831092D7011092D60108952F923F929A
:101130004F925F926F927F928F929F92AF92BF92E7
:10114000CF92DF92EF92FF920F931F93CF93DF9393
:10115000CDB7DEB7CA1BDB0B0FB6F894DEBF0FBEF0
:10116000CDBF09942A88398848885F846E847D843D
:101170008C849B84AA84B984C884DF80EE80FD803F
:101180000C811B81AA81B981CE0FD11D0FB6F894B5
:10119000DEBF0FBECDBFED010895EE0FFF1F05901E
:1011A000F491E02D09940F931F93CF93DF93823036
:1011B000910510F482E090E0E091A102F091A2028A
:1011C00030E020E0B0E0A0E0309799F4211531053F
:1011D00009F44AC0281B390B24303105D8F58A811F
:1011E0009B816115710589F1FB0193838283FE0167
:1011F00011C0408151810281138148175907E0F0E5
:101200004817590799F4109761F012960C931297AA
:1012100013961C933296CF01DF91CF911F910F91BE
:1012200008950093A1021093A202F4CF2115310575
:1012300051F04217530738F0A901DB019A01BD01B3
:10124000DF01F801C1CFEF01F9CF9093A2028093A3
:10125000A102CDCFFE01E20FF31F819391932250A3
:10126000310939832883D7CF20919F023091A00282
:10127000232B41F420910201309103013093A0020D
:1012800020939F0220910001309101012115310529
:1012900041F42DB73EB74091040150910501241B44
:1012A000350BE0919F02F091A002E217F307A0F442
:1012B0002E1B3F0B2817390778F0AC014E5F5F4FAC
:1012C0002417350748F04E0F5F1F5093A00240933C
:1012D0009F02819391939FCFF0E0E0E09CCFCF936A
:1012E000DF930097E9F0FC01329713821282A091FC
:1012F000A102B091A202ED0130E020E01097A1F42C
:1013000020813181820F931F20919F023091A00292
:101310002817390709F061C0F093A002E0939F02FB
:10132000DF91CF910895EA01CE17DF07E8F54A81F2
:101330005B819E0141155105B1F7E901FB83EA8309
:1013400049915991C40FD51FEC17FD0761F48081B5
:1013500091810296840F951FE90199838883828188
:1013600093819B838A83F0E0E0E012968D919C91BB
:1013700013970097B9F52D913C911197CD010296E5
:10138000820F931F20919F023091A00228173907E6
:1013900039F6309751F51092A2021092A102B09343
:1013A000A002A0939F02BCCFD383C283408151810E
:1013B000840F951FC817D90761F44E5F5F4F88816E
:1013C0009981480F591F518340838A819B81938360
:1013D00082832115310509F0B0CFF093A202E0938A
:1013E000A1029ECFFD01DC01C0CF13821282D7CFB4
:1013F000B0E0A0E0EEEFF9E00C9498088C010097C3
:1014000051F4CB010E94D3088C01C801CDB7DEB7DF
:10141000E0E10C94B408FC01E60FF71F9C01225098
:101420003109E217F30708F49DC0D901CD91DC9191
:101430001197C617D70798F0C530D10530F3CE0104
:1014400004978617970708F3C61BD70B2297C193FB
:10145000D1936D937C93CF010E946F09D6CF5B012E
:10146000AC1ABD0A4C018C0E9D1EA091A102B09138
:10147000A202512C412CF12CE12C109731F58091D6
:101480009F029091A0028815990509F05CC046164C
:10149000570608F058C08091000190910101009713
:1014A00041F48DB79EB74091040150910501841B12
:1014B000950BE817F90708F055C0F093A002E093E8
:1014C0009F02F90171836083A0CF8D919C91119748
:1014D00012966C90129713967C901397A815B905E5
:1014E00059F56C0142E0C40ED11CCA14DB0420F192
:1014F000AC014A195B09DA011296159780F06282F5
:10150000738251834083D9016D937C93E114F1047C
:1015100071F0D7011396FC93EE93129776CF229633
:101520008C0F9D1FF90191838083F301EFCFF0931E
:10153000A202E093A10269CF4816590608F42C01D3
:101540007D01D3019ACFCB010E94D3087C01009783
:1015500049F0AE01B8010E94B50AC8010E946F09A6
:10156000870153CF10E000E050CFFB01DC0102C047
:1015700001900D9241505040D8F70895FB01DC01D5
:1015800001900D920020E1F7089510E0C2E6D0E04E
:1015900004C0FE010E94CD082196C336D107C9F7C9
:0415A000F894FFCFED
:1015A4000000A30280000000000036029601C3017F
:1015B4008302F401D201E60100000000BC0296019E
:1015C4004F03BB0218032E03A3020D0A0041542B40
:1015D400434D47463D310041542B434D47533D2233
:1015E400004D6573736167652053656E743A20001E
:1015F40041542B434E4D493D322C322C302C302C4F
:10160400300053797374656D20496E697469616C37
:10161400697A6564002B31323334353637383930E2
:1016240000456C657068616E74204465746563740C
:0416340065642100C8
:00000001FF
