:020000040000FA
:100000000C9463000C948B000C948B000C942104D2
:100010000C9421040C9421040C948B000C948B0000
:100020000C948B000C948B000C948B000C948B0024
:100030000C948B000C948B000C948B000C948B0014
:100040000C94D7030C948B000C948B000C948B00B5
:100050000C948B000C948B000C948B000C948B00F4
:100060000C948B000C948B000000000024002700EF
:100070002A0000000000250028002B0000000000DE
:1000800023002600290004040404040404040202DA
:100090000202020203030303030301020408102007
:1000A0004080010204081020010204081020000012
:1000B0000008000201000003040700000000000027
:1000C00000009B061D0711241FBECFEFD8E0DEBF46
:1000D000CDBF22E0A8E8B1E001C01D92A631B20771
:1000E000E1F711E0A0E0B1E0EAE0F3E102C0059041
:1000F0000D92A838B107D9F710E0C2E6D0E004C0ED
:100100002197FE010E948007C136D107C9F70E94DE
:1001100099040C9478090C940000833081F028F441
:10012000813099F08230A9F008958730A9F08830A5
:10013000C9F08430B1F4809180008F7D03C080913C
:1001400080008F7780938000089584B58F7784BD79
:10015000089584B58F7DFBCF8091B0008F77809319
:10016000B00008958091B0008F7DF9CFCF93DF93D9
:10017000282F30E0F901E255FF4F8491F901E6564E
:10018000FF4FD491F901EA57FF4FC491CC23A1F05E
:1001900081110E948D00EC2FF0E0EE0FFF1FE4585C
:1001A000FF4FA591B491EC91ED2381E090E009F42B
:1001B00080E0DF91CF91089580E090E0FACF1F9327
:1001C000CF93DF93282F30E0F901E255FF4F849160
:1001D000F901E656FF4FD491F901EA57FF4FC49158
:1001E000CC23A9F0162F81110E948D00EC2FF0E096
:1001F000EE0FFF1FEE58FF4FA591B4918FB7F89403
:10020000EC91111108C0D095DE23DC938FBFDF91F4
:10021000CF911F910895DE2BF8CFCF93DF9390E01D
:10022000FC01E656FF4F24918A579F4FFC018491B1
:100230008823D1F090E0880F991FFC01E859FF4F07
:10024000A591B491FC01EE58FF4FC591D491611175
:100250000EC09FB7F8948C91E22FE0958E238C937B
:100260002881E223E8839FBFDF91CF9108958FB764
:10027000F894EC91E22BEC938FBFF6CF3FB7F89454
:100280008091EF019091F001A091F101B091F20104
:1002900026B5A89B05C02F3F19F00196A11DB11DE1
:1002A0003FBFBA2FA92F982F8827BC01CD01620F1D
:1002B000711D811D911D42E0660F771F881F991FD8
:1002C0004A95D1F708958F929F92AF92BF92CF92A5
:1002D000DF92EF92FF924B015C010E943E016B01A5
:1002E0007C010E943E016C197D098E099F09683EC0
:1002F000734081059105A8F321E0821A9108A108B5
:10030000B10888EEC80E83E0D81EE11CF11C8114F0
:100310009104A104B10429F7FF90EF90DF90CF90F2
:10032000BF90AF909F908F900895AF92BF92CF9261
:10033000DF92EF92FF920F931F93CF93DF936C01A5
:100340007B018B01040F151FEB015E01AE18BF0886
:10035000C017D10759F06991D601ED91FC91019038
:10036000F081E02DC6010995892B79F7C501DF9150
:10037000CF911F910F91FF90EF90DF90CF90BF90A2
:10038000AF900895CF93DF93FC0144815581608144
:10039000718183EF91E00E949501EC0142E050E011
:1003A00068E171E083EF91E00E9495018C0F9D1F41
:1003B000DF91CF9108952091CA013091CB01281788
:1003C000390771F49091C8018091C901981741F0E3
:1003D000E091C801F0E0E857FE4F808190E0089579
:1003E0008FEF9FEF08950895EF92FF920F931F9361
:1003F000CF93DF93DC015C96ED90FC905D97E11468
:10040000F10479F481E090E013969C938E93129717
:1004100090E080E0DF91CF911F910F91FF90EF90DE
:1004200008955196ED91FC91529750968C9150976A
:10043000982F90950FB75E962C915E97122F1270A1
:1004400021FD6095F8942081112319F1282B208338
:10045000E7012197F1F728E0462F50E0308160FF57
:100460001AC0382B3083E7012197F1F7BA0175954F
:100470006795215089F7112381F08081892380833A
:100480000FBF5C968D919C910197F1F781E090E010
:10049000C1CF2923DCCF3923E5CF9081892BEFCF42
:1004A0002091CA013091CB012817390761F480915E
:1004B000C9012091C80190E0805C9F4F821B910987
:1004C0008F739927089590E080E008952091CA01E4
:1004D0003091CB0128173907B9F49091C801809168
:1004E000C901981789F0E091C801F0E0E857FE4F84
:1004F00080812091C80130E02F5F3F4F2F73332759
:100500002093C80190E008958FEF9FEF089590E049
:1005100080E008950E94C20162E370E080E090E014
:100520000C9463010F931F93CF93DF93EC018881A9
:100530009981009759F02A813B812617370730F0BF
:1005400081E0DF91CF911F910F9108958B016F5F33
:100550007F4F0E94AB08009759F0998388831B83D3
:100560000A832C813D81232B59F7FC011082E8CFAF
:1005700080E0E7CFCF93DF93EC01888199810097EA
:1005800011F00E942208198218821D821C821B828F
:100590001A82DF91CF910895FC01808191810097AB
:1005A00011F00C9422080895EF92FF920F931F937D
:1005B000CF93DF93EC01198218821B821A821D826D
:1005C0001C828617970719F1FB0100811181011523
:1005D0001105E9F0E480F580B7010E9492028111D3
:1005E00009C0CE01DF91CF911F910F91FF90EF9045
:1005F0000C94BA02FD82EC82B80188819981DF9166
:10060000CF911F910F91FF90EF900C947109DF91A2
:10061000CF911F910F91FF90EF900895EF92FF926D
:100620000F931F93CF93DF93EC017B011982188204
:100630001B821A821D821C82FB0101900020E9F7B7
:1006400031978F01061B170BB8010E94920281118E
:1006500009C0CE01DF91CF911F910F91FF90EF90D4
:100660000C94BA021D830C83B70188819981DF91B4
:10067000CF911F910F91FF90EF900C947109CF9241
:10068000DF92EF92FF920F931F93CF93DF93CDB73B
:10069000DEB72C970FB6F894DEBF0FBECDBF8C012E
:1006A0007B016BE171E0CE0101960E940E03F8011F
:1006B000C080D180C114D10409F467C004811581C0
:1006C00001151105B9F08D819E81080F191FB80120
:1006D000CE0101960E949202882309F456C0298116
:1006E0003A818D819E81B601820F931F0E9471090C
:1006F0001E830D830D811E810F5F1F4FB801CE0138
:1007000001960E949202811145C0CE0101960E947D
:10071000BA02BE016F5F7F4FCE0107960E94D402DE
:10072000CE0107960E948A02CE0107960E94CC0253
:10073000CE0101960E94CC0262E370E080E090E07E
:100740000E946301C7010E94C20162E370E080E081
:1007500090E00E9463016AE183EF91E00E94F4015E
:1007600064E670E080E090E00E9463012C960FB692
:10077000F894DEBF0FBECDBFDF91CF911F910F91D7
:10078000FF90EF90DF90CF900895CE0101960E94E8
:10079000BA02B0CF29813A818D819E8163E271E0F6
:1007A000820F931F0E9471091E830D83B2CF1F9287
:1007B0000F920FB60F9211242F933F938F939F9315
:1007C000AF93BF938091EB019091EC01A091ED016B
:1007D000B091EE013091EA0123E0230F2D3758F557
:1007E0000196A11DB11D2093EA018093EB01909326
:1007F000EC01A093ED01B093EE018091EF01909197
:10080000F001A091F101B091F2010196A11DB11D7D
:100810008093EF019093F001A093F101B093F20166
:10082000BF91AF919F918F913F912F910F900FBEEC
:100830000F901F90189526E8230F0296A11DB11D59
:10084000D2CF1F920F920FB60F9211242F933F9386
:100850004F935F936F937F938F939F93AF93BF93C8
:10086000EF93FF93E091CA01F091CB01309749F0EB
:10087000A685B7858585968D91FF14C09C918923A7
:10088000A1F4FF91EF91BF91AF919F918F917F91D3
:100890006F915F914F913F912F910F900FBE0F90ED
:1008A0001F9018959C91892361F7A389B4899C9125
:1008B0008589809589238C93868997890197F1F79B
:1008C000608D718DA685B785558538E020E0CB0118
:1008D0000197F1F7822F90E095958795282F4C91FD
:1008E000452309F02068315091F7868D81FD2095D0
:1008F0008091C90190E001968F7399273091C801CA
:10090000381799F0A091C901B0E0A857BE4F2C93B9
:100910008093C901828D938D0197F1F7A389B489E2
:100920008C919589892B8C93ACCF868D8160868F35
:10093000F1CFCF93DF93CDB7DEB72C970FB6F894F6
:10094000DEBF0FBECDBF789484B5826084BD84B510
:10095000816084BD85B5826085BD85B5816085BDBA
:1009600080916E00816080936E0010928100809172
:1009700081008260809381008091810081608093FA
:100980008100809180008160809380008091B1001F
:1009900084608093B1008091B00081608093B0004A
:1009A00080917A00846080937A0080917A008260DE
:1009B00080937A0080917A00816080937A008091A0
:1009C0007A00806880937A001092C10010920E0223
:1009D00010920D0210920C0210920B0210920A0259
:1009E000109209028DE991E09093100280930F021A
:1009F0009091FF01963108F047C02DEB30E0309325
:100A00000A02209309022BE931E030930C02209373
:100A10000B022CE231E030930E0220930D02209164
:100A2000680084E0983048F031E09E3008F430E00F
:100A300081E001C0880F3A95EAF7822B8093680025
:100A40002DE630E0983050F02BE630E09E3030F06C
:100A50002CE630E0963110F030E020E030930702D1
:100A600020930602292F30E0983008F023C181E05E
:100A700001C0880F9A95EAF78093080280910F02CF
:100A8000909110020197F1F780910D0290910E0262
:100A9000892B49F1E091CA01F091CB0181E0E33F5C
:100AA000F80709F1309739F0A389B4899C918589B9
:100AB000809589238C93809111028E7F80931102FF
:100AC0001092C9011092C80183EF91E09093CB017D
:100AD0008093CA01E0910602F09107028081909113
:100AE0000802892B808365E271E0CE0101960E94A5
:100AF0000E03CE0101960E948A02CE0101960E9449
:100B0000CC026FE271E0CE0101960E940E03CE018D
:100B100001960E948A02CE0101960E94CC0261E0F9
:100B200082E00E940D0160E083E00E940D0161E01F
:100B300084E00E940D0161E085E00E940D0161E00A
:100B400087E00E940D0160E086E00E940D016CECE0
:100B500071E0CE0101960E94D40269ED71E0CE01F0
:100B600007960E94D402BE016F5F7F4FCE010796A9
:100B70000E943F03CE0107960E94CC02CE0101964F
:100B80000E94CC0200E010E02FB7F8948091EB01B6
:100B90009091EC01A091ED01B091EE012FBF409139
:100BA000E6015091E7016091E8017091E901841B31
:100BB000950BA60BB70B84369105A105B10508F47A
:100BC0008BC02FB7F8948091EB019091EC01A0912C
:100BD000ED01B091EE012FBF8093E6019093E70104
:100BE000A093E801B093E90183E00E94B6006C0194
:100BF00086E00E94B6007C0181E0C816D10409F0AD
:100C000066C08091E50181111EC06FED71E0CE01DB
:100C100001960E94D40269ED71E0CE0107960E9410
:100C2000D402BE016F5F7F4FCE0107960E943F0343
:100C3000CE0107960E94CC02CE0101960E94CC0202
:100C400081E08093E501EA94EF2809F057C0809194
:100C5000D801811141C061E082E00E94DF0061E0C3
:100C600085E00E94DF0060E087E00E94DF0061E035
:100C700084E00E94DF0062ED71E0CE0101960E94E7
:100C8000D40269ED71E0CE0107960E94D402BE0144
:100C90006F5F7F4FCE0107960E943F03CE010796FC
:100CA0000E94CC02CE0101960E94CC0281E080938A
:100CB000D80112C09E3040F42850310981E001C0B3
:100CC000880F2A95EAF7D8CE2E503109F7CF109227
:100CD000E501EA94EF2891F483EF91E00E9450023D
:100CE000181619060CF583EF91E00E945002892B2B
:100CF000D9F083EF91E00E946602F5CF1092D801FF
:100D0000CA94CD2849F360E082E00E94DF0060E0F1
:100D100085E00E94DF0061E087E00E94DF0060E084
:100D200084E00E94DF00D8CF0115110509F42CCF13
:100D30000E94000029CF1092F6011092F50188EE72
:100D400093E0A0E0B0E08093F7019093F801A093C6
:100D5000F901B093FA018AE091E09093F401809355
:100D6000F30110920A021092090210920C021092E2
:100D70000B0210920E0210920D02109210021092AD
:100D80000F02609111026E7F6D7F60931102669574
:100D9000617081E068270E94DF0061E081E00E94CD
:100DA0000D01EBE9F0E0E491E0930302E7E8F0E005
:100DB000E491F0E0EE0FFF1FEE58FF4F8591949104
:100DC000909305028093040260E080E00E940D0190
:100DD0008091110281FD04C061E080E00E94DF008B
:100DE0001092FF01EAE9F0E0E491E0930002E6E806
:100DF000F0E0E491F0E0EE0FFF1FE458FF4F859123
:100E00009491909302028093010261E471E089ED74
:100E100091E00E940E036DE471E08FED91E00E947D
:100E20000E0361E671E082ED91E00E940E0364E73B
:100E300071E08CEC91E00C940E038CEC91E00E943C
:100E4000CC0282ED91E00E94CC028FED91E00E94F5
:100E5000CC0289ED91E00E94CC028AE091E090936F
:100E6000F4018093F3018091CA019091CB01835FDB
:100E7000914071F4E0910602F09107029081809117
:100E800008028095892380831092CB011092CA01B9
:100E900008952F923F924F925F926F927F928F921E
:100EA0009F92AF92BF92CF92DF92EF92FF920F93F9
:100EB0001F93CF93DF93CDB7DEB7CA1BDB0B0FB603
:100EC000F894DEBF0FBECDBF09942A8839884888C0
:100ED0005F846E847D848C849B84AA84B984C88456
:100EE000DF80EE80FD800C811B81AA81B981CE0F4D
:100EF000D11D0FB6F894DEBF0FBECDBFED01089532
:100F0000EE0FFF1F0590F491E02D09940F931F93AE
:100F1000CF93DF938230910510F482E090E0E0916E
:100F20001402F091150230E020E0B0E0A0E030972C
:100F300099F42115310509F44AC0281B390B2430D6
:100F40003105D8F58A819B816115710589F1FB0115
:100F500093838283FE0111C04081518102811381FC
:100F600048175907E0F04817590799F4109761F0AE
:100F700012960C93129713961C933296CF01DF9121
:100F8000CF911F910F9108950093140210931502B1
:100F9000F4CF2115310551F04217530738F0A9015C
:100FA000DB019A01BD01DF01F801C1CFEF01F9CFEB
:100FB0009093150280931402CDCFFE01E20FF31F30
:100FC000819391932250310939832883D7CF20917F
:100FD000120230911302232B41F42091020130912F
:100FE00003013093130220931202209100013091EB
:100FF00001012115310541F42DB73EB7409104019F
:1010000050910501241B350BE0911202F09113025F
:10101000E217F307A0F42E1B3F0B2817390778F0CF
:10102000AC014E5F5F4F2417350748F04E0F5F1F2E
:101030005093130240931202819391939FCFF0E05B
:10104000E0E09CCFCF93DF930097E9F0FC0132976B
:1010500013821282A0911402B0911502ED0130E0CA
:1010600020E01097A1F420813181820F931F2091FD
:101070001202309113022817390709F061C0F0936A
:101080001302E0931202DF91CF910895EA01CE1787
:10109000DF07E8F54A815B819E0141155105B1F7F3
:1010A000E901FB83EA8349915991C40FD51FEC17DD
:1010B000FD0761F4808191810296840F951FE901FB
:1010C00099838883828193819B838A83F0E0E0E027
:1010D00012968D919C9113970097B9F52D913C91A3
:1010E0001197CD010296820F931F20911202309129
:1010F00013022817390739F6309751F51092150267
:1011000010921402B0931302A0931202BCCFD383A7
:10111000C28340815181840F951FC817D90761F49C
:101120004E5F5F4F88819981480F591F51834083DB
:101130008A819B81938382832115310509F0B0CF89
:10114000F0931502E09314029ECFFD01DC01C0CFA5
:1011500013821282D7CFB0E0A0E0E1EBF8E00C946C
:101160004B078C01009751F4CB010E9486078C013C
:10117000C801CDB7DEB7E0E10C946707FC01E60FCC
:10118000F71F9C0122503109E217F30708F49DC0B4
:10119000D901CD91DC911197C617D70798F0C530CA
:1011A000D10530F3CE0104978617970708F3C61BC5
:1011B000D70B2297C193D1936D937C93CF010E945B
:1011C0002208D6CF5B01AC1ABD0A4C018C0E9D1EC5
:1011D000A0911402B0911502512C412CF12CE12C5C
:1011E000109731F58091120290911302881599059C
:1011F00009F05CC04616570608F058C080910001FF
:1012000090910101009741F48DB79EB74091040180
:1012100050910501841B950BE817F90708F055C09C
:10122000F0931302E0931202F90171836083A0CF5F
:101230008D919C91119712966C90129713967C90B9
:101240001397A815B90559F56C0142E0C40ED11CDD
:10125000CA14DB0420F1AC014A195B09DA011296C9
:10126000159780F06282738251834083D9016D9318
:101270007C93E114F10471F0D7011396FC93EE9383
:10128000129776CF22968C0F9D1FF9019183808350
:10129000F301EFCFF0931502E093140269CF4816E3
:1012A000590608F42C017D01D3019ACFCB010E948D
:1012B00086077C01009749F0AE01B8010E946809D9
:1012C000C8010E942208870153CF10E000E050CFF0
:1012D000FB01DC0102C001900D9241505040D8F753
:1012E0000895FB01DC0101900D920020E1F70895C3
:1012F00010E0C2E6D0E004C0FE010E948007219603
:10130000C336D107C9F7F894FFCF0000160280005A
:1013100000000000F40195018702F301500266020B
:10132000DB010D0A0041542B434D47533D22004140
:10133000542B434D47463D310041542B434E4D49BC
:101340003D322C322C302C302C30002B31323334C7
:1013500035363738393000566962726174696F6E9C
:101360002044657465637465642100456C6570682C
:10137000616E7420446574656374656421005379FB
:101380007374656D20496E697469616C697A65640E
:0213900000005B
:107E0000112484B714BE81FFF0D085E080938100F7
:107E100082E08093C00088E18093C10086E0809377
:107E2000C20080E18093C4008EE0C9D0259A86E02C
:107E300020E33CEF91E0309385002093840096BBD3
:107E4000B09BFECF1D9AA8958150A9F7CC24DD24C4
:107E500088248394B5E0AB2EA1E19A2EF3E0BF2EE7
:107E6000A2D0813461F49FD0082FAFD0023811F036
:107E7000013811F484E001C083E08DD089C08234E0
:107E800011F484E103C0853419F485E0A6D080C0E4
:107E9000853579F488D0E82EFF2485D0082F10E0AE
:107EA000102F00270E291F29000F111F8ED06801E7
:107EB0006FC0863521F484E090D080E0DECF843638
:107EC00009F040C070D06FD0082F6DD080E0C81688
:107ED00080E7D80618F4F601B7BEE895C0E0D1E017
:107EE00062D089930C17E1F7F0E0CF16F0E7DF06D8
:107EF00018F0F601B7BEE89568D007B600FCFDCFD4
:107F0000A601A0E0B1E02C9130E011968C91119780
:107F100090E0982F8827822B932B1296FA010C0160
:107F200087BEE89511244E5F5F4FF1E0A038BF0790
:107F300051F7F601A7BEE89507B600FCFDCF97BE46
:107F4000E89526C08437B1F42ED02DD0F82E2BD052
:107F50003CD0F601EF2C8F010F5F1F4F84911BD097
:107F6000EA94F801C1F70894C11CD11CFA94CF0C13
:107F7000D11C0EC0853739F428D08EE10CD085E9AC
:107F80000AD08FE07ACF813511F488E018D01DD067
:107F900080E101D065CF982F8091C00085FFFCCF94
:107FA0009093C60008958091C00087FFFCCF809118
:107FB000C00084FD01C0A8958091C6000895E0E648
:107FC000F0E098E1908380830895EDDF803219F02E
:107FD00088E0F5DFFFCF84E1DECF1F93182FE3DFCA
:107FE0001150E9F7F2DF1F91089580E0E8DFEE27F6
:047FF000FF270994CA
:027FFE00040479
:00000001FF
